:100000000C9434000C9451000C9451000C94510049
:100010000C9451000C9451000C9451000C9451001C
:100020000C9451000C9451000C9451000C9451000C
:100030000C9451000C9451000C9451000C945100FC
:100040000C9451000C9451000C9451000C945100EC
:100050000C9451000C9451000C9451000C945100DC
:100060000C9451000C94510011241FBECFEFD8E026
:10007000DEBFCDBF12E0A0E0B1E0E0EBF4E002C0F3
:1000800005900D92AA34B107D9F722E0AAE4B2E0B4
:1000900001C01D92AB34B207E1F70E944E010C94EF
:1000A00056020C94000084B18F6084B985B1807FC2
:1000B00085B9ECE7F0E08081806480838081866090
:1000C00080838081867F8083EAE7F0E08081866894
:1000D00080838AB1806C8AB98BB18F738BB910928F
:1000E000C50087E68093C40086E08093C20088E163
:1000F0008093C100F89408959091C00095FFFCCFC3
:100100008093C6000895CF93DF93EC0103C021963E
:100110000E947C0088818111FACFDF91CF910895F0
:100120000F931F93CF93DF9300D000D000D0CDB7B3
:10013000DEB7AC01892B99F580E30E947C0043C0B7
:100140009A01ADECBCEC0E94470296958795969576
:100150008795969587959C01220F331F880F991FCD
:10016000880F991F880F991F820F931F9A01281BD0
:10017000390BC901E1E0F0E0EC0FFD1FE00FF11FCA
:10018000805D80839A010E944702AC015695479595
:1001900056954795569547950F5F1F4F02C000E053
:1001A00010E04115510561F60BC001501109E1E065
:1001B000F0E0EC0FFD1FE00FF11F80810E947C003A
:1001C0001016110694F326960FB6F894DEBF0FBEF4
:1001D000CDBFDF91CF911F910F910895EAE7F0E035
:1001E00080818064808380917A0086FDFCCF80913D
:1001F00078009091790008958091C0008823E4F7F9
:100200008091C6000895CF93DF93C0E0D0E005C091
:1002100087E492E00E9483002196C233D105C4F3A3
:10022000DF91CF910895282F22952F708F70909194
:100230004A0291111AC09BB190689BB99BB19F7BF8
:100240009BB985B1807F822B85B98FE39CE90197AB
:10025000F1F700C000008BB18F7B8BB98BB18F772A
:100260008BB981E080934A0208959BB190649BB959
:100270009BB19F779BB995B1907F892B85B98FE30F
:100280009CE90197F1F700C000008BB18F7B8BB91F
:100290008BB18F778BB910924A0208950E94530058
:1002A00080E091E00E94830084E191E00E9483005D
:1002B0008FE191E00E9483008AE291E00E94830036
:1002C000C0E08C2F0E9413018091C0008823CCF7DE
:1002D0000E94FC00813329F50E94EE008C010E94EF
:1002E000030184E491E00E94830086E391E00E9490
:1002F0008300C8010E94900080E491E00E94830086
:1003000080E091E00E94830084E191E00E948300FC
:100310008FE191E00E9483008AE291E00E948300D5
:10032000D0CF823371F6E12CF12C00E080E691E031
:100330000E948300D1E010E0A6C08C2F0E94130120
:100340008091C00088230CF09EC00E94FC0090EDBC
:10035000980F9A3008F078C00E947C001F5F13301D
:1003600009F091C02E2D30E02053310984E6829FA0
:10037000A001839F500D11248F2D90E0C0979C0108
:10038000220F331F880F991F880F991F880F991FFD
:10039000820F931F840F951FC02ED12C20E3C21A09
:1003A000D108C80ED91E8FEFC816D10409F040F548
:1003B000CC2D0E94030184E491E00E9483008FE829
:1003C00091E00E948300C6010E94900088EC91E0B9
:1003D0000E94830082E491E00E94830080E091E02B
:1003E0000E94830084E191E00E9483008FE191E00C
:1003F0000E9483008AE291E00E948300D0E043C023
:100400000E94030184E491E00E9483008AEA91E063
:100410000E94830082E491E00E94830080E091E0EA
:100420000E94830084E191E00E9483008FE191E0CB
:100430000E9483008AE291E00E948300E12CF12C6B
:1004400000E0D0E010E01FC08D3011F08A3081F460
:100450008FEF810F8230B8F40E9403018CEC91E0A1
:100460000E9483008AEF91E00E948300D0E00BC0DD
:100470000E94030180E292E00E9483008AEF91E0F3
:100480000E948300D0E0D13009F457CF1ACFA29F49
:10049000B001B39FC001A39F700D811D1124911D58
:1004A000B29F700D811D1124911D0895F894FFCF06
:1004B0000D0A3D3D3D2053697374656D61203D3DDE
:1004C0003D0D0A00436F6D616E646F733A20000D3D
:1004D0000A3E20312D41444320000D0A3E20322D9A
:1004E0004C45447320000D0A41444336203D200012
:1004F0000D0A0D0A3D3D3D3D3D3D3D3D3D3D3D3DF2
:100500003D3D3D3D3D3D3D3D3D3D3D3D0D0A2000D8
:100510000D496E677265736120756E2076616C6F30
:100520007220646520332064696769746F73206585
:100530006E74726520203020792032353520000D10
:100540000A4F4B3A204C4544732061637475616CCB
:10055000697A61646F73206120000D0A4572726FC1
:10056000723A2076616C6F722064656265207365F3
:1005700072203C3D203235350D0A20000D0A4572AF
:10058000726F723A207365206E656365736974617A
:100590006E206578616374616D656E7465203320CB
:1005A00064ED6769746F730D0A0050726573696F4B
:1005B0006E612032207061726120696E74656E74A4
:1005C0006172206465206E7565766F0D0A3E2000AD
:1005D0000D0A4572726F723A20736F6C6F207365EB
:1005E000207065726D6974656E2064ED6769746F63
:0A05F000732028302D39290D0A0070
:00000001FF
