:100000000C9434000C9449000C9449000C94490061
:100010000C9449000C9449000C9449000C9449003C
:100020000C9449000C9449000C9449000C9449002C
:100030000C9449000C9449000C9449000C9449001C
:100040000C9449000C9449000C9449000C9449000C
:100050000C9449000C9449000C9449000C944900FC
:100060000C9449000C94490011241FBECFEFD8E036
:10007000DEBFCDBF11E0A0E0B1E0E0E4F2E002C0FD
:1000800005900D92A232B107D9F70E94F3000C94AB
:100090001E010C94000084B18F6084B985B1807F0B
:1000A00085B9ECE7F0E080818064808380818660A0
:1000B00080838081867F8083EAE7F0E080818668A4
:1000C00080838AB1806C8AB98BB18F738BB910929F
:1000D000C50087E68093C40086E08093C20088E173
:1000E0008093C10008959091C00095FFFCCF80934C
:1000F000C6000895CF93DF93EC0103C021960E94C0
:10010000730088818111FACFDF91CF9108950F9309
:100110001F93CF93DF9300D000D000D0CDB7DEB7D0
:10012000AC01892B99F580E30E94730043C09A01CA
:10013000ADECBCEC0E940F0196958795969587953E
:10014000969587959C01220F331F880F991F880F62
:10015000991F880F991F820F931F9A01281B390B33
:10016000C901E1E0F0E0EC0FFD1FE00FF11F805D41
:1001700080839A010E940F01AC01569547955695D0
:100180004795569547950F5F1F4F02C000E010E05E
:100190004115510561F60BC001501109E1E0F0E095
:1001A000EC0FFD1FE00FF11F80810E9473001016FD
:1001B000110694F326960FB6F894DEBF0FBECDBF9E
:1001C000DF91CF911F910F910895EAE7F0E08081D0
:1001D0008064808380917A0086FDFCCF80917800D6
:1001E0009091790008950E944B0080E091E00E9478
:1001F0007A0083E191E00E947A000E94E5000E946B
:1002000087008EE191E00E947A002FEF89E698E165
:10021000215080409040E1F700C00000EECFA29F47
:10022000B001B39FC001A39F700D811D1124911DCA
:10023000B29F700D811D1124911D0895F894FFCF78
:1002400053697374656D6120696E69636961646F78
:100250000D0A0056616C6F7220414443363A0D0A14
:0202600000009C
:00000001FF
