S00F00005072654C6162362E73726563A9
S11300000C9434000C9451000C9451000C94510045
S11300100C9451000C9451000C9451000C94510018
S11300200C9451000C9451000C9451000C94510008
S11300300C9451000C9451000C9451000C945100F8
S11300400C9451000C9451000C9451000C945100E8
S11300500C9451000C9451000C9451000C945100D8
S11300600C9451000C94510011241FBECFEFD8E022
S1130070DEBFCDBF11E0A0E0B1E0E0E5F4E002C0F6
S113008005900D92AC3FB107D9F721E0ACEFB1E098
S113009001C01D92AD3FB207E1F70E944E010C94DE
S11300A026020C94000084B18F6084B985B1807FEE
S11300B085B9ECE7F0E0808180648083808186608C
S11300C080838081867F8083EAE7F0E08081866890
S11300D080838AB1806C8AB98BB18F738BB910928B
S11300E0C50087E68093C40086E08093C20088E15F
S11300F08093C100F89408959091C00095FFFCCFBF
S11301008093C6000895CF93DF93EC0103C021963A
S11301100E947C0088818111FACFDF91CF910895EC
S11301200F931F93CF93DF9300D000D000D0CDB7AF
S1130130DEB7AC01892B99F580E30E947C0043C0B3
S11301409A01ADECBCEC0E941702969587959695A2
S11301508795969587959C01220F331F880F991FC9
S1130160880F991F880F991F820F931F9A01281BCC
S1130170390BC901E1E0F0E0EC0FFD1FE00FF11FC6
S1130180805D80839A010E941702AC0156954795C1
S113019056954795569547950F5F1F4F02C000E04F
S11301A010E04115510561F60BC001501109E1E061
S11301B0F0E0EC0FFD1FE00FF11F80810E947C0036
S11301C01016110694F326960FB6F894DEBF0FBEF0
S11301D0CDBFDF91CF911F910F910895EAE7F0E031
S11301E080818064808380917A0086FDFCCF809139
S11301F078009091790008958091C0008823E4F7F5
S11302008091C6000895CF93DF93C0E0D0E005C08D
S113021081E191E00E9483002196C233D105C4F3A9
S1130220DF91CF910895282F22952F708F70909190
S1130230FC0191111AC09BB190689BB99BB19F7B43
S11302409BB985B1807F822B85B98FE39CE90197A7
S1130250F1F700C000008BB18F7B8BB98BB18F7726
S11302608BB981E08093FC0108959BB190649BB9A4
S11302709BB19F779BB995B1907F892B85B98FE30B
S11302809CE90197F1F700C000008BB18F7B8BB91B
S11302908BB18F778BB91092FC0108950E945300A3
S11302A080E091E00E94830084E191E00E94830059
S11302B08FE191E00E9483008AE291E00E94830032
S11302C0C0E08C2F0E9413018091C0008823CCF7DA
S11302D00E94FC00813329F50E94EE008C010E94EB
S11302E0030184E491E00E94830086E391E00E948C
S11302F08300C8010E94900080E491E00E94830082
S113030080E091E00E94830084E191E00E948300F8
S11303108FE191E00E9483008AE291E00E948300D1
S1130320D0CF823371F680E691E00E948300D1E061
S113033000E0E12CF12C77C08C2F0E9413018091F6
S1130340C00088230CF06FC00E94FC00182F80EDC1
S1130350810F8A3008F05CC0812F0E947C00C701A5
S1130360880F991FEE0CFF1CEE0CFF1CEE0CFF1CFB
S1130370E80EF91EE10EF11C80E3E81AF1080F5FA4
S1130380033009F050C081E0E816F80608F5CE2DD8
S11303900E94030184E491E00E9483008EE891E0CE
S11303A00E94830082E491E00E94830080E091E057
S11303B00E94830084E191E00E9483008FE191E038
S11303C00E9483008AE291E00E948300D0E02BC067
S11303D00E94030184E491E00E94830089EA91E091
S11303E00E94830083EC91E00E94830080E091E00E
S11303F00E94830084E191E00E9483008FE191E0F8
S11304000E9483008AE291E00E948300D0E00BC046
S11304101D3049F01A3039F00E94030181EE91E059
S11304200E948300D0E0D13009F486CF4ACFA29F46
S1130430B001B39FC001A39F700D811D1124911DB4
S1130440B29F700D811D1124911D0895F894FFCF62
S11304500D0A3D3D3D2053697374656D61203D3D3A
S11304603D0D0A00436F6D616E646F733A20000D99
S11304700A3E20312D41444320000D0A3E20322DF6
S11304804C45447320000D0A41444336203D20006E
S11304900D0A0D0A3D3D3D3D3D3D3D3D3D3D3D3D4E
S11304A03D3D3D3D3D3D3D3D3D3D3D3D0D0A200035
S11304B0496E677265736120756E2076616C6F7228
S11304C020646520332064696769746F7320656EE6
S11304D074726520203020792032353520000D0AD1
S11304E04F4B3A204C4544732061637475616C69C9
S11304F07A61646F730D0A20000D0A4572726F727F
S11305003A206465626520736572203C3D20323573
S11305103520000D0D3D3D3D3D3D3D3D3D3D3D3DC9
S11305203D3D3D3D3D3D3D3D3D3D3D3D3D0D0A2077
S1130530000D0A4572726F723A20736F6C6F2064FB
S10F0540ED6769746F730D0A3E20000023
S9030000FC
